{
  "_format": "hh-sol-artifact-1",
  "contractName": "TodoList",
  "sourceName": "contracts/todolist.sol",
  "abi": [
    {
      "anonymous": false,
      "inputs": [
        {
          "indexed": true,
          "internalType": "address",
          "name": "user",
          "type": "address"
        },
        {
          "indexed": false,
          "internalType": "uint256",
          "name": "taskIndex",
          "type": "uint256"
        },
        {
          "indexed": false,
          "internalType": "string",
          "name": "description",
          "type": "string"
        }
      ],
      "name": "TaskAdded",
      "type": "event"
    },
    {
      "anonymous": false,
      "inputs": [
        {
          "indexed": true,
          "internalType": "address",
          "name": "user",
          "type": "address"
        },
        {
          "indexed": false,
          "internalType": "uint256",
          "name": "taskIndex",
          "type": "uint256"
        }
      ],
      "name": "TaskCompleted",
      "type": "event"
    },
    {
      "inputs": [
        {
          "internalType": "string",
          "name": "_description",
          "type": "string"
        }
      ],
      "name": "addTask",
      "outputs": [],
      "stateMutability": "nonpayable",
      "type": "function"
    },
    {
      "inputs": [
        {
          "internalType": "uint256",
          "name": "_index",
          "type": "uint256"
        }
      ],
      "name": "completeTask",
      "outputs": [],
      "stateMutability": "nonpayable",
      "type": "function"
    },
    {
      "inputs": [],
      "name": "getMyTasks",
      "outputs": [
        {
          "components": [
            {
              "internalType": "string",
              "name": "description",
              "type": "string"
            },
            {
              "internalType": "bool",
              "name": "completed",
              "type": "bool"
            }
          ],
          "internalType": "struct TodoList.Task[]",
          "name": "",
          "type": "tuple[]"
        }
      ],
      "stateMutability": "view",
      "type": "function"
    },
    {
      "inputs": [
        {
          "internalType": "uint256",
          "name": "_index",
          "type": "uint256"
        }
      ],
      "name": "getTask",
      "outputs": [
        {
          "internalType": "string",
          "name": "description",
          "type": "string"
        },
        {
          "internalType": "bool",
          "name": "completed",
          "type": "bool"
        }
      ],
      "stateMutability": "view",
      "type": "function"
    },
    {
      "inputs": [],
      "name": "getTaskCount",
      "outputs": [
        {
          "internalType": "uint256",
          "name": "",
          "type": "uint256"
        }
      ],
      "stateMutability": "view",
      "type": "function"
    }
  ],
  "bytecode": "0x6080604052348015600f57600080fd5b5061089c8061001f6000396000f3fe608060405234801561001057600080fd5b50600436106100575760003560e01c80631d65e77e1461005c57806367238562146100865780636e13f8181461009b578063c17a340e146100b0578063e1e29558146100ce575b600080fd5b61006f61006a366004610523565b6100e1565b60405161007d929190610582565b60405180910390f35b6100996100943660046105a6565b61021a565b005b6100a3610303565b60405161007d919061061a565b3360009081526020819052604090205460405190815260200161007d565b6100996100dc366004610523565b61040c565b3360009081526020819052604081205460609190831061013d5760405162461bcd60e51b8152602060048201526012602482015271092dcecc2d8d2c840e8c2e6d640d2dcc8caf60731b60448201526064015b60405180910390fd5b33600090815260208190526040812080548590811061015e5761015e610695565b90600052602060002090600202019050806000018160010160009054906101000a900460ff16818054610190906106ab565b80601f01602080910402602001604051908101604052809291908181526020018280546101bc906106ab565b80156102095780601f106101de57610100808354040283529160200191610209565b820191906000526020600020905b8154815290600101906020018083116101ec57829003601f168201915b505050505091509250925050915091565b336000908152602081815260409182902082516060601f86018490049093028101830184529283018481529092918291908690869081908501838280828437600092018290525093855250505060209182018190528354600181018555938152208151919260020201908190610290908261074a565b506020918201516001918201805460ff1916911515919091179055336000818152928390526040909220547f793f49aab3b9e0d3125d745773b78ac45236f2beeed7c6296e60911e17a0de42916102e691610809565b84846040516102f793929190610830565b60405180910390a25050565b33600090815260208181526040808320805482518185028101850190935280835260609492939192909184015b828210156104035783829060005260206000209060020201604051806040016040529081600082018054610363906106ab565b80601f016020809104026020016040519081016040528092919081815260200182805461038f906106ab565b80156103dc5780601f106103b1576101008083540402835291602001916103dc565b820191906000526020600020905b8154815290600101906020018083116103bf57829003601f168201915b505050918352505060019182015460ff161515602091820152918352929092019101610330565b50505050905090565b33600090815260208190526040902054811061045f5760405162461bcd60e51b8152602060048201526012602482015271092dcecc2d8d2c840e8c2e6d640d2dcc8caf60731b6044820152606401610134565b33600090815260208190526040812080548390811061048057610480610695565b60009182526020909120600290910201600181015490915060ff16156104e15760405162461bcd60e51b815260206004820152601660248201527515185cdac8185b1c9958591e4818dbdb5c1b195d195960521b6044820152606401610134565b6001818101805460ff1916909117905560405182815233907ff684d89bb0f42287bf32838774e4b7f8a60c11804b3c6d1791fa55f306792643906020016102f7565b60006020828403121561053557600080fd5b5035919050565b6000815180845260005b8181101561056257602081850181015186830182015201610546565b506000602082860101526020601f19601f83011685010191505092915050565b604081526000610595604083018561053c565b905082151560208301529392505050565b600080602083850312156105b957600080fd5b823567ffffffffffffffff8111156105d057600080fd5b8301601f810185136105e157600080fd5b803567ffffffffffffffff8111156105f857600080fd5b85602082840101111561060a57600080fd5b6020919091019590945092505050565b6000602082016020835280845180835260408501915060408160051b86010192506020860160005b8281101561068957603f198786030184528151805160408752610668604088018261053c565b60209283015115159783019790975250938401939190910190600101610642565b50929695505050505050565b634e487b7160e01b600052603260045260246000fd5b600181811c908216806106bf57607f821691505b6020821081036106df57634e487b7160e01b600052602260045260246000fd5b50919050565b634e487b7160e01b600052604160045260246000fd5b601f82111561074557806000526020600020601f840160051c810160208510156107225750805b601f840160051c820191505b81811015610742576000815560010161072e565b50505b505050565b815167ffffffffffffffff811115610764576107646106e5565b6107788161077284546106ab565b846106fb565b6020601f8211600181146107ac57600083156107945750848201515b600019600385901b1c1916600184901b178455610742565b600084815260208120601f198516915b828110156107dc57878501518255602094850194600190920191016107bc565b50848210156107fa5786840151600019600387901b60f8161c191681555b50505050600190811b01905550565b8181038181111561082a57634e487b7160e01b600052601160045260246000fd5b92915050565b83815260406020820152816040820152818360608301376000818301606090810191909152601f909201601f191601019291505056fea26469706673582212200af0f324cd4077edd9213d4e9769721e2c1e61842aabc7b6057c756e5eec624164736f6c634300081c0033",
  "linkReferences": {},
  "deployedLinkReferences": {}
}